{
  "contractName": "Identity",
  "abi": [
    {
      "inputs": [
        {
          "internalType": "string",
          "name": "_name",
          "type": "string"
        },
        {
          "internalType": "string",
          "name": "_email",
          "type": "string"
        },
        {
          "internalType": "uint256",
          "name": "_id",
          "type": "uint256"
        }
      ],
      "name": "addUser",
      "outputs": [],
      "stateMutability": "nonpayable",
      "type": "function"
    },
    {
      "inputs": [],
      "name": "getUser",
      "outputs": [
        {
          "internalType": "string",
          "name": "",
          "type": "string"
        },
        {
          "internalType": "string",
          "name": "",
          "type": "string"
        },
        {
          "internalType": "uint256",
          "name": "",
          "type": "uint256"
        }
      ],
      "stateMutability": "view",
      "type": "function",
      "constant": true
    }
  ],
  "bytecode": "0x608060405234801561001057600080fd5b506105b0806100206000396000f3fe608060405234801561001057600080fd5b50600436106100365760003560e01c8063832880e71461003b578063964f59371461005b575b600080fd5b610043610070565b6040516100529392919061048f565b60405180910390f35b61006e6100693660046103da565b61020d565b005b33600090815260016020526040812054606091829160ff166100ad5760405162461bcd60e51b81526004016100a4906104c5565b60405180910390fd5b336000908152602081905260408082208151606081019092528054829082906100d590610529565b80601f016020809104026020016040519081016040528092919081815260200182805461010190610529565b801561014e5780601f106101235761010080835404028352916020019161014e565b820191906000526020600020905b81548152906001019060200180831161013157829003601f168201915b5050505050815260200160018201805461016790610529565b80601f016020809104026020016040519081016040528092919081815260200182805461019390610529565b80156101e05780601f106101b5576101008083540402835291602001916101e0565b820191906000526020600020905b8154815290600101906020018083116101c357829003601f168201915b50505091835250506002919091015460209182015281519082015160409092015190969195509350915050565b3360009081526001602052604090205460ff161561023d5760405162461bcd60e51b81526004016100a4906104f2565b60408051606081018252848152602080820185905281830184905233600090815280825292909220815180519293919261027a92849201906102c0565b50602082810151805161029392600185019201906102c0565b5060409182015160029091015533600090815260016020819052919020805460ff19169091179055505050565b8280546102cc90610529565b90600052602060002090601f0160209004810192826102ee5760008555610334565b82601f1061030757805160ff1916838001178555610334565b82800160010185558215610334579182015b82811115610334578251825591602001919060010190610319565b50610340929150610344565b5090565b5b808211156103405760008155600101610345565b600082601f830112610369578081fd5b813567ffffffffffffffff8082111561038457610384610564565b604051601f8301601f1916810160200182811182821017156103a8576103a8610564565b6040528281528483016020018610156103bf578384fd5b82602086016020830137918201602001929092529392505050565b6000806000606084860312156103ee578283fd5b833567ffffffffffffffff80821115610405578485fd5b61041187838801610359565b94506020860135915080821115610426578384fd5b5061043386828701610359565b925050604084013590509250925092565b60008151808452815b818110156104695760208185018101518683018201520161044d565b8181111561047a5782602083870101525b50601f01601f19169290920160200192915050565b6000606082526104a26060830186610444565b82810360208401526104b48186610444565b915050826040830152949350505050565b602080825260139082015272155cd95c881b9bdd081c9959da5cdd195c9959606a1b604082015260600190565b60208082526017908201527f5573657220616c72656164792072656769737465726564000000000000000000604082015260600190565b60028104600182168061053d57607f821691505b6020821081141561055e57634e487b7160e01b600052602260045260246000fd5b50919050565b634e487b7160e01b600052604160045260246000fdfea2646970667358221220e9a2aa47f1ae9e747638bd6856fa20ad007dfb007ed79f08b2cc5bed1487c17e64736f6c63430008000033",
  "immutableReferences": {},
  "source": "// SPDX-License-Identifier: MIT\r\npragma solidity ^0.8.0;\r\n\r\ncontract Identity {\r\n    struct User {\r\n        string name;\r\n        string email;\r\n        uint256 id;\r\n    }\r\n\r\n    mapping(address => User) private users;\r\n    mapping(address => bool) private registered; // Track if an address is already registered\r\n\r\n    // Function to add a new user\r\n    function addUser(string memory _name, string memory _email, uint256 _id) public {\r\n        require(!registered[msg.sender], \"User already registered\"); // Prevent duplicate registration\r\n        users[msg.sender] = User(_name, _email, _id);\r\n        registered[msg.sender] = true;\r\n    }\r\n\r\n    // Function to get user details\r\n    function getUser() public view returns (string memory, string memory, uint256) {\r\n        require(registered[msg.sender], \"User not registered\"); // Ensure the caller is registered\r\n        User memory user = users[msg.sender];\r\n        return (user.name, user.email, user.id);\r\n    }\r\n}\r\n",
  "sourcePath": "C:\\Users\\harsh\\OneDrive\\Desktop\\NexAlpha\\contracts\\Identity.sol",
  "compiler": {
    "name": "solc",
    "version": "0.8.0+commit.c7dfd78e.Emscripten.clang"
  },
  "schemaVersion": "3.4.16",
  "updatedAt": "2025-01-29T00:06:44.529Z",
  "networkType": "ethereum",
  "devdoc": {
    "kind": "dev",
    "methods": {},
    "version": 1
  },
  "userdoc": {
    "kind": "user",
    "methods": {},
    "version": 1
  }
}